:100000000C942A000C9447000C9447000C94470071
:100010000C9447000C9447000C9447000C94470044
:100020000C9447000C9447000C9447000C94470034
:100030000C9447000C9447000C9447000C94470024
:100040000C9447000C9447000C9447000C94470014
:100050000C94470011241FBECFE5D4E0DEBFCDBF16
:1000600010E0A0E6B0E0E4E4FCE002C005900D92F0
:10007000A437B107D9F720E0A4E7B0E001C01D9292
:10008000A837B207E1F70E9463020C9420060C9493
:1000900000004F925F926F927F928F929F92AF92E9
:1000A000BF92CF92DF92EF92FF920F931F93CF9365
:1000B000DF9300D000D0CDB7DEB769837A838B831E
:1000C0009C8329013A01C801B70120E030E048ECE7
:1000D00052E40E9454044B015C0129813A814B8116
:1000E0005C810E94B3056B017C01A3019201C501F3
:1000F000B4010E94B3054B015C0120E030E0A9018E
:100100000E94AE05882324F1939A969820E030E06F
:100110004DE153E4C501B4010E94B30520E030E491
:100120004CE157E40E94AE0518162CF480E49CE9DB
:1001300099BD88BD31C0C501B4010E94C6042DE936
:10014000269FA001279F500D112459BD48BD24C0F2
:100150009398969A20E030E04DE153E4C501B40154
:100160000E94B30520E030E44CE157EC0E944F04BC
:1001700088232CF480EC93E699BD88BD0DC0C501A1
:10018000B40190580E94C6042DE9269FA001279F24
:10019000500D112459BD48BD20E030E0A901C70130
:1001A000B6010E94AE058823D4F0AC9AAD9820E049
:1001B00030E04FE753E4C701B6010E94AE051816C0
:1001C00044F40F2EC12CD12CFFE7EF2EF3E4FF2EC9
:1001D000F02DC701B6010E94C60463BD1AC0AC98D9
:1001E000AD9A20E030E04FE753ECC701B6010E9422
:1001F0004F04882344F40F2EC12CD12CFFE7EF2E9F
:10020000F3ECFF2EF02DC701B6010E94C6046195E4
:1002100063BD0F900F900F900F90DF91CF911F91C2
:100220000F91FF90EF90DF90CF90BF90AF909F9095
:100230008F907F906F905F904F900895CF92DF9254
:10024000EF92FF926B017C0120E030E046E153E445
:100250000E94AE0518169CF020E030E046E153EC19
:10026000C701B6010E944F0488238CF40F2EC12CC5
:10027000D12CF6E1EF2EF3ECFF2EF02D08C00F2E5F
:10028000C12CD12CF6E1EF2EF3E4FF2EF02DC701A7
:10029000B6010E94C6049B01220F331F220F331F99
:1002A000620F731F6A50764F7BBD6ABDFF90EF905F
:1002B000DF90CF9008958D9A81B3886481BB84B319
:1002C000806384BB8C9A8F9AAC9A939A82EA8FBD92
:1002D0008AE18EBD80E49CE997BD86BD8FE685BD31
:1002E00013BC789408958F929F92AF92BF92EF9231
:1002F000FF920F931F93CF93DF931F92CDB7DEB77B
:10030000809175008983898186FD03C08981882356
:10031000B4F5898186FF17C089818823A4F060E045
:1003200070E084EB92EC0E941E01E12CF12C08ECB1
:1003300012E420E030E04FE753EC60E070E080EF43
:1003400091E40E944900898188230CF0A0C0898132
:1003500086FD9DC060E070E084EB92E40E941E0187
:10036000E12CF12C08EC12E420E030E040EF51E405
:1003700060E070E08FE793EC0E94490088C08981BB
:1003800084FD03C0898185FF35C0898184FF17C042
:10039000898185FD14C060E070E088E492EC0E94E1
:1003A0001E01E12CF12C08EC12E420E030E04FE7D4
:1003B00053E460E070E080EF91EC0E944900898195
:1003C00085FF65C0898184FD62C060E070E088E4DB
:1003D00092E40E941E01E12CF12C08EC12E420E0D2
:1003E00030E040EF51EC60E070E08FE793E40E9472
:1003F00049004DC06091760070E080E090E00E947E
:10040000FC0420E030E04FE753E40E94540420E075
:1004100030E048EC52E40E94B3054B015C01898155
:1004200080FF0DC0898181FD0AC08501740120E033
:1004300030E04FE753E4CA01B9010E9449008981C5
:1004400081FF0DC0898180FD0AC08501740120E013
:1004500030E04FE753ECCA01B9010E94490089819D
:1004600082FF09C0898183FD06C060E070E080E7FB
:1004700092EC0E941E01898183FF09C0898182FD5F
:1004800006C060E070E080E792E40E941E0189816E
:1004900081110DC0E12CF12C8701A8019701C80141
:1004A000B7010E944900C801B7010E941E010F90C8
:1004B000DF91CF911F910F91FF90EF90BF90AF9080
:1004C0009F908F90089560E072EC81E090E00E9430
:1004D00032048AE690E00E9440040E94960262E0A4
:1004E00082E00E94600385E690E00E94010480E6BD
:1004F00090E00E94F0030E945B0160E070E0CB019D
:100500000E941E01E12CF12C8701A8019701C8016E
:10051000B7010E9449000E94C7038823E1F385E7E1
:1005200090E00E942F030E947301F5CF0E941104F6
:1005300080E00E94170481E00E941D040895EF925C
:10054000FF921F93CF93DF93E82E80E00E94230455
:10055000C7E0D0E010E0F12C97010C2E02C03595D9
:1005600027950A94E2F720FF04C081E00E94290445
:1005700003C080E00E94290481E00E942304110F3F
:100580000E942F048111116080E00E9423042197B2
:1005900018F7812FDF91CF911F91FF90EF90089571
:1005A000CF9380E00E941D048FEF0E949F02C82F0E
:1005B00081E00E941D048C2FCF910895EF92FF924D
:1005C0000F931F93CF93DF934423A1F0EC01062FE9
:1005D000172F4150E42EF12C2FEFE21AF20AE80E09
:1005E000F91E89910E949F02F80181938F01CE1517
:1005F000DF05B9F7DF91CF911F910F91FF90EF9039
:1006000008950F931F93CF93DF93662371F0EC014E
:100610006150062F10E00F5F1F4F080F191F8991BF
:100620000E949F02C017D107D1F7DF91CF911F9190
:100630000F910895CF93DF93C82FD62F80E00E94AB
:100640001D048C2F8F7180620E949F028D2F0E944B
:100650009F0281E00E941D04DF91CF910895CF9306
:10066000DF93EC0180E00E941D0481E60E949F025E
:1006700040917700BE01CE010E94DE0281E00E941F
:100680001D0460E487E00E941A03DF91CF91089572
:1006900080E00E941D0482EE0E949F0281E00E9481
:1006A0001D0460E787E00E941A0380E00E9417049F
:1006B0006BE080E00E941A0381E00E941704089515
:1006C00060937700682F85E00E941A0360E081E163
:1006D0000E941A036091770082E10E941A0360E091
:1006E00083E10E941A0360E084E10E941A0360E043
:1006F00085E10E941A0360E086E10E941A0366E029
:1007000086E00E941A0368E080E00E941A0363E01A
:1007100081E00E941A0363E082E00E941A036FE402
:1007200084E00E941A0360E08CE10E941A030E9498
:10073000480308950F931F93CF93DF93082FEB0186
:10074000142F80E00E941D04802F8F710E949F0251
:10075000412FBE01CE010E94DE0281E00E941D04F5
:10076000DF91CF911F910F910895CF93DF931F9247
:10077000CDB7DEB741E0BE016F5F7F4F87E10E94DA
:100780009A03898181700F90DF91CF9108950E9423
:10079000D00286FD07C00E94B50391E0882319F0BE
:1007A00090E001C091E0892F08950F931F93CF939C
:1007B000DF93C82F8B01D42F80E00E941D048C2F63
:1007C0008F7180620E949F026D2FC8010E940103F9
:1007D00081E00E941D04DF91CF911F910F91089538
:1007E000CF93DF93EC0180E00E94170445E0BE0147
:1007F0008BE00E94D50381E00E941704DF91CF9126
:100800000895CF93DF93EC0145E0BC018AE00E949C
:10081000D50345E0BE0180E10E94D503DF91CF9171
:100820000895BB9ABC9ABF9ABD9ABE980895882332
:1008300011F0C39A0895C3980895882311F0C49ABB
:100840000895C4980895882311F0C79A0895C79809
:100850000895882311F0C59A0895C598089586B320
:10086000807408958AB188618AB980B5866880BD30
:1008700087E689B910BC08958CB95D9BFECF0895B9
:10088000CF93DF93EC018881882331F021960E9479
:100890003C0489918111FBCFDF91CF9108950E9493
:1008A000390508F481E008950E9468040C947405E9
:1008B0000E946D0558F00E94660540F029F45F3FE4
:1008C00029F00C945D0551110C94A8050C94630556
:1008D0000E94850568F39923B1F3552391F3951B85
:1008E000550BBB27AA2762177307840738F09F5F51
:1008F0005F4F220F331F441FAA1FA9F335D00E2EBE
:100900003AF0E0E832D091505040E695001CCAF72A
:100910002BD0FE2F29D0660F771F881FBB1F2617ED
:1009200037074807AB07B0E809F0BB0B802DBF01C4
:10093000FF2793585F4F3AF09E3F510578F00C9493
:100940005D050C94A8055F3FE4F3983ED4F38695CB
:1009500077956795B795F7959F5FC9F7880F911DB4
:100960009695879597F90895E1E0660F771F881FA0
:10097000BB1F621773078407BA0720F0621B730B53
:10098000840BBA0BEE1F88F7E09508950E94CD0402
:100990006894B1110C94A80508950E948D0588F003
:1009A0009F5798F0B92F9927B751B0F0E1F0660F33
:1009B000771F881F991F1AF0BA95C9F714C0B13074
:1009C00091F00E94A705B1E008950C94A705672F48
:1009D000782F8827B85F39F0B93FCCF386957795A3
:1009E0006795B395D9F73EF490958095709561958C
:1009F0007F4F8F4F9F4F0895E89409C097FB3EF4B7
:100A000090958095709561957F4F8F4F9F4F99235B
:100A1000A9F0F92F96E9BB279395F69587957795D9
:100A20006795B795F111F8CFFAF4BB0F11F460FF99
:100A30001BC06F5F7F4F8F4F9F4F16C0882311F0F1
:100A400096E911C0772321F09EE8872F762F05C005
:100A5000662371F096E8862F70E060E02AF09A95A0
:100A6000660F771F881FDAF7880F9695879597F995
:100A70000895990F0008550FAA0BE0E8FEEF16162F
:100A80001706E807F907C0F012161306E407F50782
:100A900098F0621B730B840B950B39F40A2661F0F6
:100AA000232B242B252B21F408950A2609F4A14099
:100AB000A6958FEF811D811D089597F99F6780E8A6
:100AC00070E060E008959FEF80EC089500240A94A0
:100AD0001616170618060906089500240A94121619
:100AE0001306140605060895092E0394000C11F44C
:100AF000882352F0BB0F40F4BF2B11F460FF04C0F9
:100B00006F5F7F4F8F4F9F4F089557FD9058440F51
:100B1000551F59F05F3F71F04795880F97FB991F5C
:100B200061F09F3F79F08795089512161306140619
:100B3000551FF2CF4695F1DF08C0161617061806A6
:100B4000991FF1CF86957105610508940895E89481
:100B5000BB2766277727CB0197F908950E943905AF
:100B600008F48FEF08950E94C6050C9474050E9446
:100B7000660538F00E946D0520F0952311F00C9465
:100B80005D050C94630511240C94A8050E9485054D
:100B900070F3959FC1F3950F50E0551F629FF001D0
:100BA000729FBB27F00DB11D639FAA27F00DB11DE9
:100BB000AA1F649F6627B00DA11D661F829F222772
:100BC000B00DA11D621F739FB00DA11D621F839FF9
:100BD000A00D611D221F749F3327A00D611D231FCF
:100BE000849F600D211D822F762F6A2F11249F571D
:100BF00050409AF0F1F088234AF0EE0FFF1FBB1F20
:100C0000661F771F881F91505040A9F79E3F5105DE
:100C100080F00C945D050C94A8055F3FE4F3983ECA
:100C2000D4F3869577956795B795F795E7959F5F88
:100C3000C1F7FE2B880F911D9695879597F908951A
:040C4000F894FFCF56
:100C4400E7E7E7E7E7D7D7D7D7D73D3E3E737461E9
:040C540072740A00AC
:00000001FF
